:020000040020DA
:10000000181700208D022000AB452000A9452000D4
:10001000A9452000A9452000A945200000000000B6
:10002000000000000000000000000000514C200013
:10003000A9452000000000006F4C20004D08200062
:10004000354620003B462000414620004746200020
:1000500000000000294620002F462000A94520006E
:10006000A945200000000000000000000000000082
:100070000000000000000000A94520000000000072
:100080000000000000000000A9452000A945200054
:10009000A9452000A9452000A9452000A945200028
:1000A000A9452000A9452000A9452000A945200018
:1000B000A9452000A9452000A9452000A945200008
:1000C000A9452000A9452000A9452000A9452000F8
:1000D000A945200000000000000000000000000012
:1000E0000000000000000000000000000000000010
:1000F0000000000000000000351A2000451A200012
:1001000000000000000000000000000000000000EF
:1001100000000000000000000000000000000000DF
:1001200000000000000000000000000000000000CF
:1001300000000000000000000000000000000000BF
:1001400000000000000000000000000000000000AF
:10015000000000000000000000000000000000009F
:10016000000000000000000000000000000000008F
:10017000000000000000000000000000000000007F
:10018000000000000000000000000000000000006F
:10019000000000000000000000000000000000005F
:1001A000000000000000000000000000000000004F
:1001B000000000000000000000000000000000003F
:1001C000000000000000000000000000000000002F
:1001D000000000000000000000000000000000001F
:1001E000000000000000000000000000000000000F
:1001F00000000000000000000000000000000000FF
:1002000000000000000000000000000000000000EE
:1002100000000000000000000000000000000000DE
:1002200000000000000000000000000000000000CE
:1002300000000000000000000000000000000000BE
:1002400000000000000000000000000000000000AE
:10025000000000000000000000000000000000009E
:10026000000000000000000000000000000000008E
:10027000A9452000B118200005192000590E2000C2
:10028000B11C2000FD082000A9452000FF22002409
:1002900008B5094B0948C3F8B420094A636E0949F7
:1002A000121A98470848094A2146236E121A98479D
:1002B00000F00EF8FEE700BF00200D4040000020D7
:1002C0000E010020EC56200010010020150F002028
:1002D00073B500F08BFC00F061FD00F0A1FC00F0B4
:1002E0007DFA01F0D3FC04F047FA00F04FFD00F076
:1002F0001DF9202004F05CF902F000FB00F062FC24
:10030000002000F085FB012000F082FB0020414925
:1003100000F042FC02F026FC62B6082004F048F926
:100320003D4804F0B5F93D4804F0B2F900F0F4F9A5
:10033000002002F037FC01F015FB0021384802F0E4
:1003400069FB02F013F904F05FF900F0C5FD00F05D
:10035000E1FD02F07DFE0821684601F0D9FC314D37
:10036000BDF8064030482C8001F008FD2F4E29785A
:100370002F4801F003FD69782E4801F0FFFCF56A73
:100380004AF6CD310220A84761BA89B20320A847B6
:100390001A210120A84708226946736B0B20984751
:1003A000254801F0EBFC254B186804F071F924484E
:1003B00001F0E4FC234B186804F06AF9224801F0CC
:1003C000DDFC224B186804F063F90021204802F09C
:1003D00021FB204B01219B688120984702F01CF9EA
:1003E00000F058FA01221C4B18601C4B1C481A7074
:1003F00004F09BF900F0ECFB102004F0D9F800F0B9
:10040000EDFB02F093FAC0B20028F8D101F09CFB9A
:10041000F5E700BF1D2B2000325220004E52200075
:10042000780000209807002068522000CC5020005F
:1004300086522000835420008C522000B0512000AE
:1004400093522000C45120009A522000EC51200009
:10045000980000205450200004020020D90D0020F4
:1004600028522000F8B52D4D2E7828704640F2060F
:1004700009D510F010042A4F25D000F00BFA294BB3
:10048000D8600123FB7016F0300F0AD02B78244C73
:1004900013F0300725D000F0FDF9224B186101233D
:1004A0002371B3060AD52B781D4E13F0200426D0F5
:1004B00000F0F0F91B4B5861012373712878BDE8F7
:1004C000F84000F007B9FB78002BDCD000F0E2F92F
:1004D000154A1449D368C968FC705B1A0344D36099
:1004E000D1E72379002BDCD000F0D4F90E4A0D4976
:1004F0001369096927715B1A03441361D1E77379A2
:10050000002BDBD000F0C6F9074A06495369496958
:1005100074715B1A03445361D0E700BFCC0D002017
:10052000D90D0020040200203402002008B500F09C
:10053000C7F80022014B1A7008BD00BFCC0D002087
:10054000024B1B781843FFF78DBF00BFCC0D002076
:10055000024B1B7823EA0000FFF784BFCC0D00207C
:1005600018B1012804D000207047034B186A704767
:10057000024B1878704700BF00900D40CE0D002050
:1005800010B5094A0020137801331370074B19780E
:1005900002F018FABDE8104005490023054A096831
:1005A000054802F019B800BFCE0D0020CD0D002087
:1005B00048010020810520002801002008B50346DD
:1005C000812B08462DD0B3F5807F3ED0802B26D1DD
:1005D00002F08CF91E4B032118701E4B0020D3F83B
:1005E000202422F00802C3F82024D3F8002422F0AB
:1005F0000802C3F80024D3F8042422F00802C3F848
:100600000424D3F8082442F00802C3F80824042282
:1006100000F0D2FB032200210F4800F053FB012021
:100620000AE00C4B0D49D3F8102430B142F0080217
:10063000C3F8102401230B6008BD22F00802C3F8A0
:1006400010240123C1F88030F6E7054B1960E6E776
:10065000CD0D002000900D406506200000E100E077
:100660004801002008B50F4804F094F8C8B10821EB
:100670000C4804F083F80C4B196849B100220B4B6D
:100680001A700B4B1B6A43B90A4A0B4801F0A4FFCE
:10069000BDE80840094802F027BB074801F0A6FF63
:1006A000F6E708BD2001002048010020CE0D002003
:1006B00000900D40810520002801002054502000AA
:1006C000034AD2F8003443F03803C2F800347047CC
:1006D00000C00D40014BC3F8E000704700C00D4062
:1006E000044BDB69C3F3072013F4704F04BF1030D1
:1006F000C0B2704700300D40064B5869C00910F079
:10070000060F03BF00F00700C0F1020040034FF4E2
:100710000040704700300D402DE9F047002488B0BC
:10072000FFF7DEFF164B0646DF69236D9847E36C43
:10073000804698470446FFF7DFFF054600F0AAFA17
:10074000814600F0B3FA824600F060FAAD0A07F085
:100750000103A40AC7F34007CDE905A0039341466E
:10076000CDF8109002970195009406F00F03C6F3A0
:100770000712044801F002FB08B0BDE8F08700BF93
:1007800000300D40A85220002DE9784800F082F892
:1007900010490246D1E900BC6646584538BF0CF105
:1007A00001063346C1E900230B4ED6E90001B0EB48
:1007B0000B0461EB0C05A01845EB0301C6E9000131
:1007C00001F0FEFF18B1BDE8784801F07FBFBDE839
:1007D000788800BF18010020100100204FF0E023AE
:1007E000E0210B4A5A610B4A82F8231000220721AC
:1007F0009A61196108498B6843F001038B60074BCC
:10080000DA6004221A6001225A601F229A6370473C
:100810008FD0030000ED00E000200D4000000340F9
:10082000034BD3E90023100A40EA0360704700BF7E
:1008300018010020044B9862DA6842F00102DA6085
:10084000DA68D207FCD470470000034038B500F0E6
:1008500021F80123094C0A4DA370A860FFF794FF0B
:10086000A3784BB100F016F8064AA96893685B1AA2
:10087000034493600023A37038BD00BFD90D00204E
:100880000402002034020020014B1868704700BFAA
:100890004C010020054A106C516C936C1B0443EA18
:1008A00001230343D06C43EA0060704700500D40C1
:1008B00010B504460E4A136DDB07FCD572B6FFF780
:1008C000E9FF231A062BD8BFC41D094B220EDA6498
:1008D000C4F307429A64C4F307225A64E2B21A646A
:1008E00062B64FF40032034B1C60034B1A6110BD1B
:1008F00000500D404C01002000E100E070B501F017
:10090000F1F8FFF7C7FF012300254FF400320C4C2C
:100910000C4EA3700C4BB0601D600C4BC3F89021C3
:10092000C3F8902002F09AF8A37843B1FFF7B2FF22
:10093000074AB1689368A5705B1A0344936070BD61
:10094000D90D0020040200204C01002000E100E04D
:1009500034020020064B9B691B075FBF054B98695B
:1009600080F00800C0F3C00048BF0020704700BFFF
:1009700000C0004000D000402DE9F0410546FFF7DF
:1009800089FF01232C221D4E1D4FB3701D4BB860F3
:1009900002FB05334FF6BF72DC68236C626413F010
:1009A00050021BD0DFF86080A369DB060DD5B37859
:1009B0004BB1FFF76FFF154AB96893685B1A0344A0
:1009C00093600023B370BDE8F08158F825301BB167
:1009D0002068C0B29847E7E72368E5E713F4D06FD3
:1009E000E5D04FF440732363FF236360E36AE26260
:1009F000E362236B43F001032363D8E7D90D0020A2
:100A00000402002064502000500100203402002025
:100A100001282DE9F74F804600F2AD802C25454393
:100A2000564F7C1994F92090B9F1000FC0F2A380C1
:100A300094F92260002EC0F29E80514801F014F912
:100A4000504B79599A6A94F921A00A439A62DA6A5A
:100A50006168E5680A43DA621A6BA168F0B20A437A
:100A60001A63002322690AEBC901C5F8C83F116067
:100A700094F82310227DCDE9000194F923B000F011
:100A8000A5F9DDE90001082200F096F90122310301
:100A90003D4E02FA0BFB88594FEA09394BEA000038
:100AA000885159F8061002FA0AFA4AEA010149F88F
:100AB00006105021A963A96B94F9240041F4D06178
:100AC000A963022169634FF440712963A169002879
:100AD0006962E169A9624FF07001E96216DB0023E7
:100AE00094F92510294C41EAC005C4F804510403C7
:100AF000A5598A402A43A251C9B21A46C0B200F091
:100B00005BF9234A136B43F4004313632C2303FB69
:100B1000087393F92640002C1ADB93F82790E5B26E
:100B200001224946284693F927A000F04FF90123F6
:100B30002403A25903FA0AF31343A3510822494696
:100B4000284600F039F9124A136B43F480431363CB
:100B50002C2000FB0877FA68136B43F00103136342
:100B6000012297F82830590903F01F0302FA03F312
:100B7000084A42F8213003B0BDE8F08F64502000ED
:100B80005509200000200D4020940D4000400D40EC
:100B900000D0004000E100E001289CBF014B43F879
:100BA0002010704750010020012808D82C22044B47
:100BB00002FB0030C3689A699206FCD41960704742
:100BC000645020000022014B1A60704700500D4015
:100BD0000822014B1A60704700500D40A022024BC2
:100BE0001A6050221A60704700500D40014A024BB3
:100BF0009A6070470000200000ED00E0024B58684A
:100C0000C0F38150704700BF00200D4008B5FFF7CA
:100C1000F5FF024B53F8200008BD00BFBC50200078
:100C200010B51A4C0122D4F82034062123F04003D9
:100C3000C4F82034D4F80034032023F04003C4F86F
:100C4000003400F0B9F8D4F82034012223F08003F6
:100C5000C4F82034D4F80034072123F08003C4F80A
:100C60000034032000F0A8F84FF40032084B1A605B
:100C700002F57F0259681142FCD15A685201FCD436
:100C8000034A53685B01FCD510BD00BF00C00D4096
:100C900000200D40034B04485B6803F00703184134
:100CA000704700BF00200D400048E801034B044896
:100CB0005B68C3F302231841704700BF00200D405A
:100CC0000048E801024B02EBC10243F822007047E2
:100CD00058010020F8B507460D460024084E06EBE3
:100CE000411647FA04F3DB07E1B204D556F8243085
:100CF0000BB1284698470134082CF2D1F8BD00BF4B
:100D0000580100202DE9F84F054600F0EBFEFFF7F3
:100D1000C1FD0123174FDFF86080BB70DFF85CA0D6
:100D2000174BC8F808002E0356F8039056F80A40EF
:100D30004FEAC50B24FA0BF449EA04002946C0B275
:100D4000FFF7C8FFE4B20F4A5FFA89F304FA0BF425
:100D5000B35046F80A40BB7853B1FFF79BFD0A4AEF
:100D6000D8F8081093685B1A034493600023BB70A3
:100D7000BDE8F88FD90D00200402002018970D401F
:100D800018940D401C940D40340200208022002154
:100D9000014803F0B7BB00BF58010020034B044AD1
:100DA0001A60044B803A1A60704700BFD8010020D7
:100DB00080400D40DC010020034B01EBC0011B68AB
:100DC00043F82120704700BFD8010020034B01EBFE
:100DD000C0011B6843F82120704700BFDC010020E0
:100DE0000E2870B506460DD1134B5C6B44F0020023
:100DF00058631248D0F8F45625F03F0343F001033E
:100E0000C0F8F4360E48836823F0FF031A431143F9
:100E10003143816003681B06FCD5C368006903F099
:100E2000FC0343EA00230E2E18B201BF034BC3F8A4
:100E3000F456014B5C6370BD000001440080084023
:100E400000700D40034BD3F80007B0FA80F0400962
:100E5000704700BF00B0084070B5FFF71BFD0123CD
:100E60004FF400420F4C104EA370104B104DB06069
:100E7000C3F89021C3F89020286850B9FFF70AFD05
:100E80000C4AB16893685B1A034493600023A37013
:100E900070BD01F0D7FD00232B60A378002BF7D0A5
:100EA000ECE700BFD90D00200402002000E100E0C3
:100EB000E001002034020020064B9A6C42F002024E
:100EC0009A64DA6C42F00202DA641A6D42F00202AD
:100ED0001A65704700200D4007B50C4800F0C4FEAD
:100EE000FFF7EAFF0A4B5A6D42F002025A650022F0
:100EF0000192019A0F2A06DD5A6D22F002025A650C
:100F000003B05DF804FB019A0132F1E7450E2000C1
:100F100000200D40064B9A6C22F002029A64DA6CB3
:100F200022F00202DA641A6D22F002021A6570479A
:100F300000200D40044BD3F84C0600F02200A0F135
:100F4000200358425841704700800840024BD3F8B4
:100F50004C0600F0400070470080084008B50D4B7B
:100F600093F90020002A0CDBED210B4AC2F8381857
:100F7000C2F83818E321C2F838181A7862F07F02F4
:100F80001A70FFF787FC054BD8610120044BD8711C
:100F900008BD00BFD50D00200080084004020020DD
:100FA000D90D002070B505460C46144ED6F84C36C7
:100FB0009B07FBD4124B93F90030002B01DBFFF7AA
:100FC000CDFFEE23691EC6F83838C6F83838A31CA2
:100FD000C6F828382144022000F0DEFC0949013C13
:100FE00041EA0411022000F0E9FC022000F0F0FCCC
:100FF000022000F005FD002070BD00BF0080084009
:10100000D50D002002C001C0054BD3F8002620B149
:1010100042F00102C3F80026704722F00102F9E70E
:1010200000800840284B1870002841D0274A536898
:101030001B03FCD5264BD3F8042842F00202C3F868
:101040000428D3F8042842F00102C3F80428D3F896
:1010500004285007FBD5D3F8042822F00102C3F876
:1010600004281B4BD3F804285107FBD4D3F80428D9
:1010700042F00202C3F80428D3F8042842F0010227
:10108000C3F80428D3F804285207FBD5D3F88C26DC
:1010900022F00402C3F88C26D3F8342822F004028C
:1010A000C3F834284FF400520A4BC3F8902070471D
:1010B000074AD2F88C3643F00403C2F88C364FF45A
:1010C0000052044B1A617047D40D002000200D40DF
:1010D0000080084000E100E00B280DD1082A0DD166
:1010E00061B1074B074A083111F8010D43F8040BB1
:1010F0009342F9D1002070470120704702207047C9
:10110000A8850840C885084070B5384A0546D2F819
:101110004C0610F0400009D0D2F82808040606D585
:10112000ED23C2F83838C2F83838002070BDC0B29C
:101130000428F5D902388842F2DCC4B2032C24D149
:10114000D2F828382B70D2F828386B70D2F82838AB
:10115000AB70264D264BD5F82818264E493949B292
:101160001970D5F828381806337026D589B20420AE
:1011700002F098F83178032001F07F0102F092F834
:101180001D4B1B78FBB12046D0E7291903200139FC
:1011900000F00AFC1949631E032041EA031100F024
:1011A0000DFC032000F014FC032000F029FC0320B8
:1011B00000F032FC0028FAD1CBE7ED23C5F838382F
:1011C000C5F83838B1E7D5F84C365A06DBD5D5F82E
:1011D0004C361B0603D50A4801F034FCD3E7ED2357
:1011E000C5F83838C5F83838CDE700BF008008406A
:1011F000D60D0020D30D0020D40D002002C0010C1C
:101200005000002010B5144BD3F84C269107FBD4A6
:10121000D3F84C2652065EBFED22C3F83828C3F837
:101220003828D3F82C2612B1EF22C3F838280B4AFD
:101230000B4C137803F07F031370E37953B1FFF77E
:1012400029FB084A0849D369C9695B1A0344D36179
:101250000023E371012010BD00800840D50D00205F
:10126000D90D0020340200200402002070B5A0F146
:101270000B05EBB20F2B044614D80C4ED6F84836AB
:1012800013F03F0302D0FFF7BDFF012305EB8505F7
:101290000B35C6F83C560BB1FFF760FE044B60B24D
:1012A0001C7070BD4FF0FF30FBE700BF00800840AE
:1012B0000C01002010B50C46072865D8DFE800F0C7
:1012C000040F1A232C444A5E012903D1FFF746FE7E
:1012D00000203EE0002959D1FFF794FFF8E7A1F183
:1012E0000B030F2B52D8C8B2FFF7C0FF0130EFD16C
:1012F00003202EE0264BCAB2C1F30724C3F8C82549
:10130000C3F8CC45E4E7224BCAB2C1F30724C3F8C3
:10131000D025C3F8D445DBE731F0070336D101F01F
:101320000100FFF771FE1A4B11F0020FD3F82426CB
:10133000C1F3800014BF42F0200222F02002C3F863
:101340002426FFF76FFEC3E731F001001ED1114BD9
:10135000197010BD01F118031F2B17D80D230E4A69
:1013600052F833108C4206DC02EBC3031A79084BA7
:10137000C3F84026ACE7013BF2D2A9E7044BCCB25C
:101380004934C3F85846A3E70120E2E70220E0E72A
:10139000008008400D0100200451200038B50C46A3
:1013A000002900F09180102800F29080DFE800F022
:1013B00009111D252B434C60667D818E8E86885DCC
:1013C0008A00434BD3F82C36003B18BF012323601F
:1013D0002BE005223E4BD3F83C3603F07F030B3B5A
:1013E00093FBF2F30B33DBB2F1E7394AD2F8CC15B9
:1013F000D2F8C83543EA0123E9E7354AD2F8D415D3
:10140000D2F8D035F6E70023314A0B60D2F8003627
:1014100003F001030B60D2F82426900644BF43F08A
:1014200002030B602B4B1B780BB900200BE00B6801
:1014300043F00403CBE70020274B08601B78002B08
:10144000F3D001230B6038BD214B2449D3F840264B
:101450000023D2B201EBC3000079904202D851F8C8
:101460003330B4E701330E2BF4D16FF01703AEE73E
:10147000174BD3F858365BB2493BA8E7144DD5F863
:10148000483699060FD1FFF769FD0123D5F8642688
:10149000D207FBD5D5F86056493D6DB20BB1FFF7C9
:1014A000B1FE2560C1E70023F0E70D4B93F9003052
:1014B0008DE70C4B1B7803F07F0388E70B2386E74F
:1014C0001A2384E7072382E70220BCE70120BAE75A
:1014D00000800840D40D00200D01002004512000A0
:1014E000D60D0020D30D002010B50B4CD4F8483693
:1014F00099060FD1FFF732FD0123D4F86426D207F5
:10150000FBD5D4F84C46C4F300140BB1FFF77AFEB8
:10151000204610BD0023F0E7008008402DE9F0418F
:10152000394B93F90030002B1BDBFFF7B3F904466E
:10153000FFF714FDC4F1FF2404F57F04F634FFF730
:10154000A9F9C442FBD40127304B1B785BB9304B5F
:10155000D3F84C4614F020040AD002242046BDE8FB
:10156000F0810027F0E7FFF7BFFF0028EFD1F4E795
:10157000284D294EEB7943B1FFF78CF9274AF169E1
:10158000D369EC715B1A0344D361FFF783F901233C
:10159000AB71E9234FF004081D4CB061C4F8383832
:1015A000D4F84C369A0704D408F1FF3818F0FF0835
:1015B0000AD1D4F84C369B070AD5154BD3F84C46C4
:1015C00014F00204FAD109E00620FFF733F9E7E747
:1015D000EE23C4F83838C4F838380124AB794BB15D
:1015E000FFF758F90D4AB16993695B1A0344936197
:1015F0000023AB71FFF74EF90123F061EB71002F6F
:10160000ACD0FFF7FFFDA9E7D50D00200D010020AC
:1016100000800840D90D0020040200203402002080
:101620000B282DE9F8430D460FD1082A7CD100295B
:101630007AD03E4B3E4A4D1E53F80419934205F8AA
:10164000011FF9D10020BDE8F8830C286AD1042AD3
:101650006AD1002968D0374BD3F8102822F007024E
:10166000C3F81028D3F8042842F00802C3F804286D
:10167000D3F81428D3F81818D3F81008D2B220F0F1
:101680007000C3F81008D3F82448D3F820080902E2
:1016900042EA006289B224040A4304F47F04D3F8C6
:1016A0001C7842EA0408D3F81028FFB222F007029F
:1016B00042F00102C3F81028D3F8042842F00802CF
:1016C000C3F80428D3F81448D3F81828D3F810180E
:1016D000E4B221F0700141F01001C3F81018D3F802
:1016E0002418D3F82008120292B244EA00640904D4
:1016F000144301F47F010C43D3F81C185FFA81F9FD
:10170000FFF7C8F8B8EB040467EB0907FF030646C8
:101710000023094AE00347EA544102F0C5FC361AA7
:101720002E608FE701208EE702208CE7C4850840F9
:10173000A4850840008008400048E8012DE9F041F8
:101740002C4F3E7816F0010652D101252A4B2B4C26
:10175000C3F8A850C3F8AC50C3F8B050F823C4F88D
:1017600058360923C4F8E83715230B22C4F8C836C5
:10177000234B4FF07F085A604023C4F82436D4F836
:10178000243643F02003C4F82436D523C4F8086671
:10179000C4F85086C4F840361A4B1878FFF766FD37
:1017A0004FF48042184B0220C4F894861A6100F06E
:1017B0001BF91649022000F0F7F8032000F014F995
:1017C0001249032000F0E8F8114B1878FFF72AFCC3
:1017D0003146104801F01EF93B782B433B70FFF770
:1017E00059F80D4BD86128460C4BDD71BDE8F081EE
:1017F0000020FBE7D50D002000200D4000800840B0
:1018000000600D400C01002000E100E02888084045
:10181000D40D00205000002004020020D90D00202B
:1018200038B50388044653B340F20342934233D1A0
:101830001B4B1A7842BB822924D11B7873B901F063
:10184000E3FC01F075FC8021FFF75EFC002805DD5C
:1018500080B201F02DFC134B1B699847124B1A788C
:1018600052060CD500221A70104BD3F84856FFF7D9
:10187000C9FCFFF763FFAB0601D0FFF76FFB40F237
:101880000343238001200AE01A78002AFAD0064A8E
:1018900012785006F6D5CEE700230380032038BD2A
:1018A000D40D0020EC512000D50D00200080084010
:1018B00070B5FEF7EFFF01230C4C0D4EA3700D4BDE
:1018C000B0601B7813B90C4801F0BCF800250B4B35
:1018D000C3F83458A37843B1FEF7DCFF084AB16877
:1018E0009368A5705B1A0344936070BDD90D002006
:1018F00004020020D40D0020500000200080084089
:101900003402002070B5FEF7C5FF012300250F4CFF
:101910000F4E104AB060A370D2F82C380E48042B3A
:101920001FBF0E490B7843F040030B70C2F82C58D0
:1019300001F088F8A37843B1FEF7ACFF084AB1681C
:101940009368A5705B1A0344936070BDD90D0020A5
:10195000040200200080084050000020D50D002027
:101960003402002010B5094C40220021204602F02C
:10197000C9FD0122064B5A604FF480429C60054B22
:101980005A604FF400425A6010BD00BF00000020B2
:1019900000F00F4000E100E003289EBF014B000172
:1019A000195070470000002003289EBF024B03EB34
:1019B00000104160704700BF0000002003289EBF58
:1019C000024B03EB00108160704700BF0000002055
:1019D000032806D80123034A03FA00F0916A08435A
:1019E0009062704700F00F40032806D80123034A95
:1019F00003FA00F0116A08431062704700F00F40CC
:101A0000032806D80123034A03FA00F0516908436A
:101A10005061704700F00F4003289FBF044B03EB59
:101A20000010806800F0070088BF0020704700BFEA
:101A3000000000204FF0FF32014BC3F8042570472F
:101A400000F00F400122014BDA64704700F00F40B4
:101A5000084B5A68D102FCD41A6822F480321A600A
:101A60005A68D203FCD41968034A0A4042F400328F
:101A70001A60704700200D40F8F8FDFF70B5154C56
:101A8000FEF708FF2378144D3BB1144A2968136808
:101A90005B1A03441360002323700123104E686017
:101AA00031680220637000F0EBFD30BF022000F0CF
:101AB000CBFD3060FEF7EEFE63783BB1074A696804
:101AC00053685B1A0344536000236370012328604A
:101AD000237070BDD90D00200402002034020020C4
:101AE000E401002070B5134CA36D990720D0636802
:101AF0005A01FCD463685B01FCD5002502F085FD2A
:101B0000FFF7A6FF0220A56500F09EFD0A4B1860B6
:101B1000FEF7C0FE094A0A49537833B1094C4E68B2
:101B2000636855709B1B0344636001230860137056
:101B300070BD00BF00200D40E4010020D90D002041
:101B40000402002034020020F8B53E4BD3F848468A
:101B500014F03F0431D13C4D55F8043B23B1984774
:101B600058B30134052CF7D1384E33782BB3FEF738
:101B70008BFE0446FEF78EFE201A09281DD9E4B11B
:101B8000334A344B11680B4043F4807343F0010334
:101B900013605368D902FCD413682D4D43F480338D
:101BA00013606B68DB03FCD5FEF774FE241A092C66
:101BB00007D8BDE8F840FFF74BBFBDE8F840FFF796
:101BC0005DBF632C2DD93378022B2AD1224EAB6511
:101BD000224C0220316800F053FDFEF75BFE2378B3
:101BE0001F4D3BB11F4A296813685B1A03441360F9
:101BF0000023237001236860637000F0D9FE90B168
:101C00000027FFF725FF124B02209F6500F01CFD07
:101C10003060FEF73FFE63785BB9012328602370D4
:101C2000F8BD0123D2E7FEF72FFE0028E8D030BF31
:101C3000F6E70C4A6968536867705B1A034453609F
:101C4000EBE700BF00800840E8010020D70D00202E
:101C500000200D40FEFEFDFFE4010020D90D002014
:101C60000402002034020020074A10B50023144665
:101C700052F8041B814202D011B944F8230010BD70
:101C80000133052BF4D1FAE7E80100200022054BCF
:101C900005499A650B6943F004030B61034B1A7005
:101CA000704700BF00200D4000ED00E0D70D002080
:101CB00070B5FEF7EFFD01234FF480320F4C104E4C
:101CC000A370104B104DB060C3F89021C3F8902062
:101CD000286850B9FEF7DEFD0C4AB16893685B1ABC
:101CE000034493600023A37070BD00F0ABFE00239B
:101CF0002B60A378002BF7D0ECE700BFD90D0020B4
:101D00000402002000E100E0FC0100203402002079
:101D10004FF4201270B592F82B40431E54B101F5D8
:101D20002011154A273191421AD011F8010903F800
:101D3000010FF8E792F82A40122CF0D192F82920EE
:101D40004B2AECD14C0804F520120B4D2732AA4245
:101D500007D1002301F5201120442731A34205DBE0
:101D600070BD12F8016903F8016FF0E7CA1A127822
:101D7000013300F8012BF1E7270028000FB407B565
:101D800004AA52F8041B0448019200F021F803B0A1
:101D90005DF804EB04B070476000002070B50546A4
:101DA0000C460A4E102C07D874B122462B6868687E
:101DB0000649BDE870401847102231462B68686814
:101DC000984710B9103CEDE7204670BDC85320007D
:101DD0002DE9F04F8046154600278DB00491049BF5
:101DE0001B78002B00F07983049B1A781C46013382
:101DF000002A00F06183252AF7D1049B9C4205D07C
:101E00005DE323783744002B00F067836278631C1E
:101E1000002A00F062830024184610F8012B1946AE
:101E20002B2A15D009D8202A15D0232A16D0A2F1A2
:101E30003106082E40D8002219E02D2A04D0302A7D
:101E4000F5D144F0100401E044F001040346E3E757
:101E500044F00604FAE744F00204F7E744F008040B
:101E6000F4E70A21019A01FB0299A9F1300219460F
:101E700013F8019B0192A9F13002092AF1D90B78DC
:101E80002E2B36D14A784B1CA2F13000092828D8D5
:101E90004FF0000B1A781946A2F13000092803F11F
:101EA000010318D90B786C2B6BD14B786C2B23D199
:101EB00044F08004023122E02A2A09D12B6801462D
:101EC000002B019305F10405B8BF44F00104D6E7E7
:101ED00000230193D3E70A2101FB0B2BABF1300B5D
:101EE000D8E72A2A04D1D5F800B002310435D9E761
:101EF00019464FF0FF3BD5E7013144F060040B7801
:101F0000782B0CD8572B48D8472B08D8402B00F2F9
:101F10008D80002B00F0E182252B00F0D0804B1C3F
:101F2000049304F4E063B3F5A06F00F0A28200F222
:101F3000C980B3F5407F00F06882B3F5806F00F090
:101F40002F82B3F5807F7FF44AAFBBF1000FACBFA7
:101F500024F010044FF0010B14F4005904F0E003D6
:101F600000F07A81402B00F0728100F2C280002BD9
:101F700000F07081202B00F0CB800026B2460023B9
:101F8000D3E0682BBBD14B78682B02D144F02004FE
:101F900090E7013144F04004B1E7583B202BBED814
:101FA00001A252F823F000BF712020001F1F200063
:101FB0001F1F20001F1F20001F1F20001F1F2000A9
:101FC0001F1F20001F1F20001F1F20009B2020001C
:101FD0001F1F2000A7202000592020008320200060
:101FE000772020008F2020001F1F20005920200074
:101FF0001F1F20001F1F20001F1F20001F1F200069
:10200000B920200065202000B32020001F1F2000E1
:102010001F1F2000AD2020001F1F20005F20200078
:102020001F1F20001F1F20006B202000413B062B9C
:102030003FF675AF01A252F823F000BFA1202000A7
:102040001F1F20001F1F20001F1F200089202000AD
:102050007D2020009520200044F424545FE744F4C0
:1020600010645CE744F4885459E744F4C85456E7D4
:1020700044F4B24453E744F4007450E744F4844415
:102080004DE744F402444AE744F4424447E744F449
:10209000813444E744F4A13441E744F4C1343EE7D9
:1020A00044F4E1343BE744F4A06438E744F480644A
:1020B00035E744F4407432E744F4E0642FE744F435
:1020C000C0642CE7B3F5C06F07D0B3F5E06F7FF4C1
:1020D00086AE2B6804351F6081E60122D8F80030F7
:1020E000A649D8F804009847002840F0F481013749
:1020F00075E6602B00F0AE80802B7FF43EAFEA1DCA
:1021000022F007021546D2F804A055F8086B04E047
:1021100095F9006004354FEAE67ABAF1000FBFF690
:102120002EAF012376426AEB4A0A029304F4C053AD
:10213000B3F5805F00F0E480B3F5C05F00F0E680A7
:10214000B3F5006F00F0C6800DF12E03009300235D
:102150000393039B41F608029B4588BFABEB030B3F
:1021600041F2080304EA020198BF4FF0000B9942C4
:1021700004D1BBF1010F38BF4FF0010B039B91421B
:102180005B4440F0DF8056EA0A0200F0DB807C49C5
:102190007C4A14F4804F4FF0020614BF8A469246E0
:1021A000B9F1000F0DD0029A002A40F0CE8004F061
:1021B0000602022A00F0CD80062A734A04BF0126D7
:1021C000924606EB0309019B4B4594BF4FF0000973
:1021D000A3EB090914F00103019304D1E20640F1D5
:1021E000BC80CB4499464EB132465146D8F80030B7
:1021F000D8F804009847002840F06D815C46039BA6
:10220000DFF888A11F44102CD8E9003000F2AD801F
:102210002CB122465D499847002840F05C81D8F8EF
:102220000030039A0099D8F80400374498470028F2
:1022300040F05181019B5F44002B00F0E080494653
:102240004046FFF7ABFD002800F0D98043E1B5F927
:1022500000605FE72E685DE7402B1BD007D8DBB13D
:10226000202B11D04E46CA46CDF808905EE7602B71
:1022700012D0802BF6D1EA1D22F007021546D2F8C3
:1022800004A055F8086B02E02E78CA460435CDF854
:1022900008904BE72E88F8E72E68F6E70398059933
:1022A0000A22002301F000FF009B303203F8012DC9
:1022B0000398059900930A22002301F0F5FE03908C
:1022C0000591039B059A1343E8D1009A0DF12E0363
:1022D0009B1A3DE70DF12E030396CDF814A0009351
:1022E000EFE7009803F00701303100F8011DDB082B
:1022F00043EA42730090D20853EA0201F1D1E4E7C5
:102300000DF12E01334652460091F5E7204B14F4AF
:10231000804F2049524608BF194633460DF12E0022
:10232000009053EA0200D0D003F00F00DDF800C0A7
:10233000085C1B090CF8010D43EA0273CDF800C0DC
:102340001209EEE70026B2462AE70126DFF848A088
:1023500037E70126DFF844A033E749464046FFF758
:102360001DFD00283FF43FAFB5E0102251469847CD
:10237000002840F0B080103C45E700BFC653200065
:10238000B5532000B8532000BD532000D85320007F
:10239000A453200093532000BB53200098522000E8
:1023A0002E6804356EB333469A469AF800200133FE
:1023B000002AF9D1AAEB060ABBF1000F02DBDA45CD
:1023C00028BFDA46019B534594BF4FF00009A3EBA9
:1023D0000A0914F0010405D149464046FFF7DEFC26
:1023E000002878D152463146D8F80030D8F8040099
:1023F000984700286FD15744002C7FF420AF4F44FA
:10240000EDE44FF0060A374ED6E7374B14F4804F11
:10241000364808BF18460DF12B0300229A4629685A
:10242000043551EA02061AD1BAEB030A04BF30227E
:1024300003F8012C4FF0780208BF03F1FF3303F8D3
:10244000012C4FF0300208BF4FF0010A03F8022CB4
:102450002322DE1E03F8032C0AF1030AB2E701F07F
:102460000F06865D090941EA027103F8016D120940
:10247000D7E7DDF804902B68B9F1010F38BF4FF0B2
:10248000010914F0010405F104058DF8183009F173
:10249000FF3605D131464046FFF780FCD8B93744B6
:1024A0000122D8F80030D8F8040006A9984790B95E
:1024B000002CA4D03146C3E6049B9C420DD0049B63
:1024C0000499E61A3246D8F80030D8F80400984744
:1024D00000283FF496AC4FF0FF3738460DB0BDE80A
:1024E000F08F00BFBF532000A4532000935320005F
:1024F000F8B5038805461646CBB14A2B2BD188295F
:102500001FD1174802F057F90446C4B1231D9E425B
:102510001FD12146124802F058F9124E63693768FC
:102520003360A3690BB1E0699847376007E00C4856
:1025300002F041F9044634B901220B4B1A704A23C8
:102540002B8001200AE0A168201D02F0F8F8246821
:10255000F1E72468D9E7002303800320F8BD00BF1A
:1025600000020020EC030020D80D002010B500244C
:10257000054B06481C7002F01BF92146BDE81040CF
:10258000034800F047BA00BFD80D00200002002029
:102590006800002070B50446E3610B4B049D1B7876
:1025A000C4E905526BB1094D094B2E68201D2B6003
:1025B00002F0C5F82E602146BDE87040054802F0E3
:1025C00017B9A160F7E700BFD80D0020EC03002089
:1025D000680000200002002013B5034C246800941A
:1025E000FFF7D8FF02B010BDEC03002010B5084B78
:1025F00004461B7843B1043000F0EAF82146BDE8F8
:102600001040044802F0E1B8C0E90333F6E700BF28
:10261000D80D00200002002010B5302400212246F1
:10262000064801F06FFF22460021054801F06AFFCD
:102630000022044B1A605A609A6010BD0402002008
:1026400034020020D90D002038B50A4B04461B5C2B
:10265000094D63B1FEF71EF9084A55F8243052F8C7
:10266000241042F824005B1A034445F8243055F83E
:10267000240038BDD90D00203402002004020020BF
:10268000014B43F8201070473402002010B50D4C68
:10269000236813B90C4A136010BDFEF7C1F8226815
:1026A000D2E900310B441B1A92681AB91844064B40
:1026B0001860F1E7D2E900142144091A8B4228BFBF
:1026C0000B46F1E76802002064020020014800F098
:1026D000B9B900BF780000202DE9F0410388054614
:1026E00053B1592B46D1872921D1002023490B68AA
:1026F00063B918B10B6001E0204A1360592301202F
:102700002B80BDE8F08101203346F1E7D3E9026474
:102710009442F8D000B10B6019460B468968002935
:10272000ECD0C8689042F8D189689960F4E78229B2
:10273000E4D14FF00008114F00263C68002CDDD09A
:10274000204602F027F890B122468821E06800F088
:1027500039F950B9A368E0602EB1B360C4F80880BD
:10276000FFF794FFE8E73B60F8E7FFF7AFFF264687
:10277000A468E3E7002303800320C2E76802002087
:1027800010B50446FFF7A2FFE3680B4A0BB11368CC
:1027900033B90A4B1B68E36013681460A36004E05C
:1027A000A34206D1054A1268DA60BDE81040FFF77F
:1027B0006DBF9B68ECE700BF68020020EC030020BF
:1027C000024B1868003818BF0120704768020020CB
:1027D00010B50B4A04461368834208D1836813601E
:1027E000FFF754FF0023C4E9023310BD1346002B4A
:1027F000F8D09A68A242F9D1A2689A60F0E700BFC7
:102800006802002038B5836804460D469BB10A482B
:1028100004600220A07304F10C00984702380128DC
:1028200001D9832D05D121462046BDE8384000F06E
:1028300005B80123A37338BDEC0300202DE9F8434C
:102840001C4F04463D6888462B46A34204D00BB972
:10285000BDE8F8831B68F8E7002CF9D0164EA37B7F
:10286000D6F8009063B10023A3738DB9A3683BB180
:10287000444505D02A468321346004F10C00984772
:102880003B68A3420ED123683B60C6F80090DFE7A7
:10289000A54204D022468721284601F067FF2D6813
:1028A000E3E71346002BF0D01A68A242F9D1226860
:1028B0001A60EAE7F0030020EC030020002238B59C
:1028C0000125084B1A70084B1C6804B938BDE37B1E
:1028D0002BB1002282212046E581FFF793FF246877
:1028E000F3E700BFE80D0020F0030020024B18784A
:1028F000421C1A70704700BFE60D00208A22064B6A
:102900001A700023054A1370054A1370054A1360B4
:10291000054A1360704700BFE60D0020E50D00205A
:10292000E70D0020F0030020EC0300202DE9F0412A
:102930001A4E33780BB1FFF7C1FF194D2C7894B1C3
:102940000C221849184F0B78013C5A430133B81830
:1029500003F01F03BF5C0B702C70D0E9018090B9AD
:10296000124B1C6824B9337828781844BDE8F081EC
:1029700033780BB1FFF7A2FF20464246394601F0FB
:10298000F5FE2468EEE7812F08BF01234246394651
:1029900008BF837301F0EAFEE5E700BFE80D002001
:1029A000E70D0020E50D00206C020020F003002060
:1029B000024A034B10781B7818447047E70D00203B
:1029C000E80D0020F0B50B4D2C78202C0FD00C26F4
:1029D000094B0A4F1B78234403F01F037343FE186F
:1029E000C6E9012000200134F9542C70F0BD01200B
:1029F000FCE700BFE70D0020E50D00206C02002081
:102A000038B5034C256801F0B1FE256038BD00BF24
:102A1000EC03002010B40A4609490C68234683429F
:102A20000CD04BB950B104600860012110BC817317
:102A300083818121FFF7E4BF1B68F0E710BC70477A
:102A4000F003002038B1837B013B012B9FBF0123A2
:102A5000014AC37313707047E80D002010B5084C8D
:102A6000206858B100232360D0E9013198472368DA
:102A700023B1BDE810401868FDF71ABF10BD00BFB4
:102A8000F403002070B505880446672D09D0792D20
:102A90002FD0002D33D1FFF729FF1B4B18701B4B94
:102AA0001D601B4E194D08E00A282B680ED07E2BA6
:102AB00003DC5A1C2A60174AD054304601F018FF34
:102AC000431CF1D16723238001201BE05A1C2A609C
:102AD0000025104A2846D5540B4B1978FFF772FF92
:102AE0000D4B2A4685211868FFF76CFF18B979232A
:102AF000E9E78529E8D10022044B1A60D1E70023D9
:102B00000380032070BD00BFEA0E0020F803002000
:102B1000FC030020E90D0020EC0300200D280146F5
:102B200010B516D00C4C237853B90C4801F0CDFEEB
:102B300008B9012323700A48FFF784FF012010BD64
:102B40000A28F8D1054801F0C0FE0028F3D0002380
:102B5000F0E70020F3E700BF690E0020FC0300202F
:102B60008800002008B505490548802201F0A6FE2E
:102B7000BDE8084000210348FFF74CBF6A0E002063
:102B8000FC03002088000020054B1A6842F0040274
:102B90001A6058699B6940EA032080B2704700BF01
:102BA00000700D40184A136823F00C0313600122D3
:102BB000164BC3F8A820D3F8A820012AFBD108227D
:102BC000134BC3F82426E322C3F83828D3F864262D
:102BD000D207FBD50E4810220023D0F89C16013AEC
:102BE00001F0010143EA01034FEA43039BB2F4D130
:102BF000002BF0D0044A190A03F0FE03516153611F
:102C0000EF23C0F83838704700700D4000200D40A9
:102C1000008008402DE9F04105880446772D20D03A
:102C20007E2D3DD0002D4ED1FFF760FE284E294B62
:102C3000294FDFF8A88018703560336857F82320D3
:102C40002AB9274A13707723238001203EE008F831
:102C50000350936800218020984733680133336024
:102C6000EBE700231F4A1360194A1360184B1C4AF4
:102C70001B6812789A4204DC1A4B1B68002BF0D1B7
:102C8000E1E7164AD256002A19DA134A002052F810
:102C90002320104B1978FFF795FE28B97E23D3E740
:102CA0000C4B1B788B42D0D1094B0C491A688B5CBA
:102CB00003F07F038B540B4A136801331360044AFB
:102CC00013680133D1E7002303800320BDE8F081BE
:102CD00008040020EC0E002040000020CF0D002052
:102CE000EB0E00200404002010B40A4B0A4A1978A5
:102CF00000238B4203DA52F8044BA04208D1074963
:102D00000748CA5C62F07F02CA5410BCFFF79ABE43
:102D10000133EEE7EB0E002040000020CF0D002035
:102D20009800002070B505460C46164600F00AF9DA
:102D300020462E610249BDE8704001F05ABF00BF35
:102D400019542000014801F033BD00BF0C040020DD
:102D5000014B1860704700BF10040020014801F0CB
:102D60002ABD00BF0C0400202DE9F04105460C48A7
:102D70000C46164601F01FFD08B9BDE8F0818388B6
:102D8000A34209D18768002FF7D03346224629464F
:102D9000BC46BDE8F041604701F045FDECE700BFEF
:102DA0000C04002070B50B4C0023616E0A4A04F13C
:102DB0003800FFF711FCFFF7E7FE656E0023B0FB5C
:102DC000F5F1064A01FB150104F11800BDE8704059
:102DD000FFF702BC14040020E12D2000F92D200093
:102DE000044B5A6E196E5200914294BF59665A664E
:102DF000FFF7D8BF1404002010B500F005FA00F06A
:102E000097F9002303800446FFF7A8FF2288930068
:102E100008B1017B51B9023398B200F049F9238817
:102E200073B1BDE81040074800F044B881882344DE
:102E30005980C18801329980228001F0F4FCE5E7D5
:102E400010BD00BF140400209DF80030012B04D1F8
:102E5000024B9A6D5A66FFF7A5BF70471404002015
:102E6000F8B50F4616461D46064C0146064A204652
:102E700000F00EF8C4E9167625660448BDE8F8406F
:102E8000FFF766BF1404002094512000492E200053
:102E900070B505460C461646044AFFF743FF204628
:102EA0006E610349BDE8704001F0A3BE9C51200053
:102EB0001B54200010B5044604491A2000F000FA03
:102EC0002046BDE8104001F023BD00BF9807002058
:102ED0000088064B40BA80B28840995CC2F1080273
:102EE00001EA20201041C0B2704700BF1F542000EB
:102EF000054B10B51B689847044618B1818801201E
:102F000000F0D0F9204610BDA451200038B5064B82
:102F100005465B6898470446A988012000F0C2F97D
:102F2000201E18BF012038BDA4512000014B9B6812
:102F3000184700BFA4512000014801F039BC00BF70
:102F40008004002081800146014801F051BC00BF8F
:102F50008004002010B50446054801F02CFC00B99F
:102F600010BD8388A342FBD001F05DFCF7E700BFF2
:102F700080040020F8B506460A480D46174601F0C1
:102F80001AFC044630B93A4629463046BDE8F840B6
:102F900001F0C5BCA3680BB128469847204601F054
:102FA00042FCEEE78404002038B5FFF7A1FF054698
:102FB000094801F000FC044628B95DB12846BDE887
:102FC000384001F0A7BC636803B19847204601F080
:102FD0002AFCF0E738BD00BF8404002010B5044689
:102FE000FFF794FF38B100F07FF8034B0348214608
:102FF0009B689847012010BD18522000752F2000B3
:1030000070B504461B200D4600F066F9064901F034
:103010003DFE38B1A3691B6823B129462046BDE8AF
:103020007040184770BD00BF9807002070B5054676
:103030000C461646044AFFF72BFF2046AE610349B3
:10304000BDE8704001F0D5BDBC5120002D542000DA
:10305000084B10B51B689847074B5B689847074BB0
:103060005B689847064B5B689847BDE81040054B86
:103070005B681847CC502000EC512000185220000B
:10308000C4512000B051200010B507490B8883427D
:1030900008DB064C80B222880244181A08800120FE
:1030A000228010BD0020FCE79A0700209C0700202A
:1030B000014B1880704700BF9A07002000487047F6
:1030C00088040020014B1888704700BF9A07002031
:1030D000034A044B10781B881844C0B2704700BFE5
:1030E000ED0E00209C0700202DE9F0410C4E3388A6
:1030F00073B100240B4B0C4FB3F800800B4B1D78C1
:103100003D4421B2414504F1010403DB0023338037
:10311000BDE8F081FFF7DCFF3844435C6B54F0E717
:103120009C0700209A07002088040020ED0E002054
:1031300008B5FFF7CDFF014B184408BD88040020F7
:10314000F8B50C4B04461E780B4B1F88F519802DE3
:103150000DDC3246094901F05FF9FFF7E9FF34441D
:1031600001463A46204601F057F92846F8BD0025A9
:10317000FBE700BFED0E00209A0700208804002026
:1031800008B5FFF7A5FF024B1B88184480B208BDA5
:103190009A07002010B50146FFF7F2FF4318802B75
:1031A00012DC431E094A1BB21A44481C002B05DAE4
:1031B000074B187801440120197010BD12F801491D
:1031C000013B14541BB2F1E70020F6E7880400200D
:1031D000ED0E002070B534220021084801F092F96C
:1031E0000024074D074E28463146013401F04BFDBF
:1031F000042C05F10205F6D170BD00BFA607002022
:103200009E070020305220000023044A1380044A05
:103210001380044A1370FFF7DDBF00BF9C07002036
:103220009A070020ED0E002038B50C460546FFF742
:10323000EBFF802C28BF802429462246034801F05A
:10324000EBF8034B20461C8038BD00BF88040020EB
:103250009A07002010B5074B03F1340253F8044BD2
:10326000934240F8044BF9D1034A13680B6053684A
:103270004B6010BDA60700209E07002010B5074B2D
:1032800000F1340250F8044B904243F8044BF9D15A
:103290000B68034A13604B68536010BDA6070020FB
:1032A0009E070020024B23F810100120704700BF3A
:1032B000A6070020014B33F810007047A607002036
:1032C00008B5044B1A3803EB400001F0DCFC012088
:1032D00008BD00BF9E070020024B1A3803EB4000D8
:1032E000704700BF9E0700200149024801F0CEBC94
:1032F00030522000A007002008B5044801F096FADB
:10330000BDE80840024801F091BA00BFB4000020B7
:10331000A800002038B50E4801F098FA054650B1D3
:103320000C4801F093FA0446286030B92946084851
:1033300001F0A0FA2546284638BDFFF701FF04F149
:10334000B601A4F8800004F18200FFF783FFF2E7E2
:10335000A8000020B400002010B50146044607482C
:1033600001F09EFA48B12168054801F083FA214630
:10337000BDE81040014801F07DBA10BDA800002052
:10338000B400002010B501460446094801F088FA4F
:1033900068B12468B4F880102046FFF745FF04F1B7
:1033A000B60104F18200BDE81040FFF767BF10BD11
:1033B000A8000020014BDB68184700BF185220000E
:1033C000014B5B69184700BFEC512000014B9B6922
:1033D000184700BFEC512000024BD86900B10047EC
:1033E000704700BFEC51200070B590F829400F4B9A
:1033F000042C214628BF04210124DB698C400546AA
:103400009847012838BF0120013C444305D0FFF70D
:10341000BBFBB0FBF4F303FB14042B46214605F180
:103420000800034ABDE87040FFF7D6B8EC51200011
:10343000A53520002DE9F04106461B200F46FFF779
:103440004BFF494B05461A78484C22B901221A70A5
:10345000FFF79AFB208023880BB901232380218862
:103460000A204B1C2380FFF71DFF414801F0A3F900
:103470000446002847D13F4801F0E8F904460028F7
:1034800068D02946201D01F0FEFB002304F12C002A
:10349000C4E90B30238501F08BF92146344801F053
:1034A000A7F9206B01F0B8F9072853DC324801F086
:1034B000CDF90546002841D0304801F0C7F9A86091
:1034C000C0B3FFF727FF686080B30920D5F80880F4
:1034D000FFF7F0FE08BB082388F808300D20C8E984
:1034E0000067FFF7E7FE01282946206B1BD101F09A
:1034F0008CF9206B01F05FF9854233D12046BDE89D
:10350000F041FFF771BF2946201D01F0BFFB0028E5
:10351000C7D1204601F087F9AAE70920FFF7CAFEC4
:1035200088F80800DAE701F063F9E2E7A9681348D0
:1035300001F0A0F92946104801F09CF9206B01F038
:103540006BF938B921460A4801F03FF9214609488C
:1035500001F090F939463046BDE8F04101230422DC
:1035600001F055BDBDE8F081FE0E0020CA0D00201F
:1035700088050020CC000020D8000020C0000020DA
:1035800008B5054801F052F9044801F04FF9BDE8CB
:103590000840034801F04AB9D8000020C0000020CC
:1035A000CC00002013B5044668B1006B01F003F9AC
:1035B000024640B12146054B0548DB68019302B045
:1035C000BDE81040184702B010BD00BFEC5120000C
:1035D000513620002DE9F0470D4614468B6806460B
:1035E000D3E90078106B92F8289001F0EEF8686843
:1035F000FFF7B2FEA968124801F03CF929461148CC
:1036000001F038F9206B01F0D6F860B100232046B4
:103610002385FFF7E9FE4B46324641463846BDE872
:10362000F04701F0F4BC04F10800FEF7DFFF21468B
:10363000054801F0CAF82146044801F01BF9EAE701
:10364000C0000020D800002088050020CC00002009
:103650002DE9F0410E461746044620B1006B01F0FB
:10366000AAF8054608B9BDE8F0810A21686801F0AA
:103670001BFB80460A20FFF71DFE804546D02846EA
:1036800001F0D1F8EDE794F8282000203A4484F8BE
:1036900028202946224684F82900BDE8F041FFF79A
:1036A00099BF002384F8293094F82830DA19D2B26F
:1036B00084F828200B7A93421CD8224629460220FF
:1036C000EBE794F82930DA19D2B2052A84F82920D8
:1036D00007D9002294F8283084F82920013384F88F
:1036E000283094F828200B7A9A4203D322462946A0
:1036F0000120D2E72046FFF777FE6868BDE8F04179
:1037000001F0CCBA224629463046C6E7A96800290E
:10371000A9D0032EF6D801A353F826F0873620004F
:10372000C3362000A336200067362000014B1888DE
:10373000704700BF080100202DE9F041012906462D
:103740000F46144686B003DC002006B0BDE8F081C9
:1037500003A901F0E7FB0B4603CB1B882061238301
:103760009DF811306161002B45D0B51C02AA01A95A
:1037700003A801F09FFA9DF81380B8F1000F4DD017
:10378000029B2BB16A7815F8023B03EB02239BB234
:10379000B8F1020FA38332D12046314901F073FA08
:1037A0006B78237015F8023B63709DF81580B8F1B3
:1037B000000F4DD0019B002B37D06A7815F8023BE3
:1037C00003EB0223029A9BB2E38302B9A383B8F10D
:1037D000020F2DD1224904F1080001F054FA6B7850
:1037E000237215F8023B6372A81B3B1A8742C4E997
:1037F0000E53A9DBA9E7B378F51CA376B6E7B8F1B9
:10380000030FD2D105F108021346611E13F8010D12
:103810009D4201F8010FF9D11546C6E7204610492F
:1038200001F031FAA4F81C80BFE7A38BE383CEE755
:10383000B8F1030FD8D105F10802134604F10801CD
:1038400013F8010DAB4201F8010BF9D11546CBE796
:10385000034904F1080001F016FAA4F81E80C3E73A
:103860003052200030B591B00546FFF75FFF4FF6AC
:10387000FF73984204D14FF0FF34204611B030BDA1
:1038800040220021684600F03DFE404B1A782AB9DC
:1038900001221A70FFF778F93D4B18701420FFF7DA
:1038A00009FD8DF810001320FFF704FD8DF81200BC
:1038B000FFF71AFD0446002848D000238DF8133086
:1038C0008DF81530002301248DF814308DF8184040
:1038D0004DB10A20FFF7EEFC00283FD00A20FFF789
:1038E000E9FC8DF81A0002248DF81940FFF71EFF3D
:1038F000ADF81C00FFF7F8FC00283CD04FF6FF7332
:103900008DF81740ADF80030FFF710FFADF81E003E
:103910001A20FFF7E1FC014602A801F0B4F9FFF715
:1039200007FC0E90FFF7CEFB0F90684601F06CFA93
:103930000446002DA1D0FFF72DFC00289BD0FFF7F7
:10394000BDFB0146684601F0A7FA96E70B20FFF79A
:10395000B1FC8DF815408DF81300B3E70C4B1A78C5
:1039600002B91C7019780A204A1C1A708DF81A10B6
:10397000FFF798FCB7E71B20FFF7AEFC014668464F
:1039800001F081F98DF81740BEE700BF110F00204C
:10399000120F0020F8B5FCF743FF114D0746002435
:1039A0002E461A20FFF798FC294601F06FF980B1E6
:1039B0000A20FFF77FFC0C2303FB0464237A834275
:1039C0000CD16068381AB0F5206F8CBF0020012040
:1039D000F8BD0134102C05F10C05E2D10020F7E709
:1039E0005406002070B5194D00242E461A20FFF70A
:1039F00073FC294601F04AF9013418B9102C05F17D
:103A00000C05F3D10C23621E03FB0464A4F10C0526
:103A10007AB90A20FFF74EFC3072FCF701FF7060A4
:103A20001A20FFF759FCBDE870400146074801F035
:103A30002AB92B4654F8180C54F8141C013A03C345
:103A400054F8100C2C461860E0E700BF5406002024
:103A5000014B1B6A184700BFCC5020002DE9FF47DF
:103A6000804689461A203F49FFF72AFC01210B2096
:103A7000FFF718FC3C4B5B689847002870DBFFF7AA
:103A80001DFB3A4D90F802A06C68FFF717FB064645
:103A9000FFF776FB01463046A047FFF725FCAF69EC
:103AA0000646B847044610B1012200240CE0A6B136
:103AB000AB680193FFF764FB019B9847024688B10E
:103AC000022814BF0422012240460123494601F086
:103AD0009EFA204604B0BDE8F087EB6998470028BD
:103AE000E2D1E5E7002E39D1FCF7D4FE0446FDF71C
:103AF00075F8C4F1FF2404F57F04F334FCF7CAFE23
:103B0000C442FBD4B847EE69E8B1FCF7C3FE0446F3
:103B1000FDF764F8C4F1FF2404F57F04EB34FCF7EF
:103B2000B9FEC442FBD4B0470446A0B103212B69BF
:103B300003A89847032803D19DF80E3053450CD0B5
:103B400000240122C0E7B04704460028DDD16B699C
:103B500098470028D9D00222B6E700220124B3E713
:103B60000522A2E7980700200C522000CC5020002C
:103B7000044B82B018B11B6A019302B018475B6A0C
:103B8000FAE700BFCC50200007B5FFF79BFA0328E7
:103B90001BD00F4B9B689847002816DB1B20FFF7B4
:103BA0009BFB0C4901F072F858B1FFF7F3FE60B9C6
:103BB000FFF718FF084BDB68019303B05DF804EBD7
:103BC0001847FFF791FB0028EFD103B05DF804FB25
:103BD0000C52200098070020C451200008B5024B69
:103BE0001B689847023008BDE051200038B50C4BE7
:103BF0009B689847041E02DA4FF0FF3038BDFFF78C
:103C000097FA03780546002BF6D10220FFF73CFA1D
:103C10000028F1D06878FFF74BFAA01CEEE700BF50
:103C2000E051200070B50220FFF7B4FA10B94FF050
:103C3000FF3070BDFFF742FA002606700446FFF71A
:103C400041FA6070FFF79CFA0446FFF7C7FF204473
:103C50002A2812DCC0F12B00C4B2FFF769FA05462E
:103C6000FFF730FA22463146284400F04BFCFFF7BC
:103C700029FA204480B2FFF71BFA044B5B6898478F
:103C8000041ED4DBFFF730FAA01CD2E7E05120007D
:103C9000014B9B68184700BFB051200070B5044627
:103CA0000D4614200121FFF7FDFA034B294620465B
:103CB000BDE870409B681847C451200070B5038868
:103CC0000446392B18D03E2B3ED08BB9364E3748A0
:103CD000314600F0DBFF72780546317890B1344808
:103CE000FEF74CF80122AA21324B334800F042F98A
:103CF00000230320238004E0304800F032FD90B917
:103D0000012070BD2E48FEF739F8AA212A482B461B
:103D10002A4600F02FF94FF47061284800F00FFD9B
:103D200039232380ECE7254800F012FDFEF72CFF35
:103D30004FF4F061B0FBF1F303FB1101214889B2AC
:103D400000F0FDFC3E23ECE71E4800F00AFD0028D1
:103D5000D6D0FFF759FAFFF7EBF91B4D2B880380FC
:103D60000220FFF7A5F929881848FEF707F812483E
:103D700000F06CF9431C08D018B102300FD1144880
:103D800000E0144800F084FC05E0074B12485A7824
:103D90001978FDF7F3FF2B8801332B80C0E72988C2
:103DA0000E48FDF7EBFFF6E7980700200A01002018
:103DB00048542000F4000020140700207807002059
:103DC0006654200088070020130F0020895420002B
:103DD000F95420009C542000C25420004A55200071
:103DE00037B504460D46FFF76DF9022808D0FFF7F6
:103DF00069F90146084803B0BDE83040FDF7BEBF91
:103E0000FFF796F962780388217800950348FDF75B
:103E1000B5FF03B030BD00BF7055200087552000AE
:103E20002DE9F34104460D46FFF74CF904280646F8
:103E300005D0254802B0BDE8F04100F029BCFFF7ED
:103E400077F907683046FFF735FA3E0C0FFA80F82D
:103E5000CDE900686A7829781C48BBB2FDF78EFF6F
:103E600018F15F0F2DDBB4F85E30BFB2BB4228D82B
:103E700023D2A4F85E700136A4F85C6004F1380621
:103E80002946304600F002FF50B92946304600F07E
:103E9000FAFEB4F85C306A7829780D48FDF76EFFB9
:103EA000FEF772FE23460B4A00F07F0104F13C004E
:103EB00002B0BDE8F041FEF78FBBB4F85C30B3420E
:103EC000D9D802B0BDE8F081BD552000E1552000F1
:103ED000235620001940200037B50446FFF7F2F8BA
:103EE000022808D8FFF7EEF801461E4803B0BDE8E7
:103EF0003040FDF743BFFFF71BF983780288013399
:103F000003208DF80630ADF80420FFF7BDF894F8D3
:103F100048303BB1E3699DF806101B6801A898473B
:103F200003B030BD04F1200528460F4900F0AEFE75
:103F3000012803D10D48FDF721FFF1E70320FFF72A
:103F400029F908B90A48F6E7FFF7B8F8BDF80420E0
:103F50009DF80630294602808370204600F06EFEF0
:103F6000DEE700BF53562000305220007C56200070
:103F7000955620002DE9F04104460D46383012498F
:103F800016461F4600F07FFE0023294620460F4AB2
:103F9000E36584F860606763FEF77AFF691C0C4A8A
:103FA00089B204F11800FFF741F85EB1012304F172
:103FB0003C00A4F85E3080212346BDE8F041054A6C
:103FC000FEF70ABBBDE8F08130522000F800002067
:103FD000000100201940200013B5B0F85E300446FF
:103FE000ADF80430B0F85C30ADF80630FFF70CF9EE
:103FF00004210DEB0100FFF717F9B4F85C20B4F8C9
:104000005E100448FDF7BAFE2046FEF753FF02B0EB
:1040100010BD00BFBA56200010B50446FFF7DCFF04
:1040200094F8603073B1B4F85E3004F13C000133B1
:10403000A4F85E304FF4F0512346BDE81040024A28
:10404000FEF7CABA10BD00BF1940200037B500F115
:10405000380504461249284600F018FE012819D0F8
:104060000320FFF797F8C0B10E4901A800F00BFE3E
:1040700000238DF80630FFF721F8BDF804209DF8E5
:10408000063029460280837004F1180000F0D6FD46
:1040900003B030BD4FF0FF30FAE76FF00100F7E7F3
:1040A000305220009807002053B94AB9002908BFB0
:1040B00000281CBF4FF0FF314FF0FF3000F076B901
:1040C000ADF1080C6DE904CE00F006F8DDF804E06F
:1040D000DDE9022304B070472DE9F047089E0D4644
:1040E00004468846002B4DD18A42944668D9B2FADC
:1040F00082F252B101FA02F3C2F1200120FA01F179
:104100000CFA02FC41EA030894404FEA1C41B8FB58
:10411000F1F71FFA8CFE01FB178807FB0EF0230C4A
:1041200043EA084398420AD91CEB030307F1FF3521
:1041300080F01E81984240F21B81023F63441B1AAB
:10414000B3FBF1F001FB103300FB0EFEA4B244EA16
:104150000344A6450AD91CEB040400F1FF3380F0A8
:104160000981A64540F20681644402380021A4EB8F
:104170000E0440EA07401EB10023D440C6E90043C4
:10418000BDE8F0878B4208D9002E00F0EE800021B8
:10419000C6E900050846BDE8F087B3FA83F10029B7
:1041A0004AD1AB4202D3824200F2FC80841A65EB12
:1041B000030301209846002EE2D0C6E90048DFE75D
:1041C00002B9FFDEB2FA82F2002A40F09180A1EB40
:1041D0000C0001214FEA1C471FFA8CFEB0FBF7F3DD
:1041E00007FB1300250C45EA00450EFB03F0A8422F
:1041F00008D91CEB050503F1FF3802D2A84200F2F2
:10420000CE8043462D1AB5FBF7F007FB10550EFB89
:1042100000FEA4B244EA0544A64508D91CEB0404F8
:1042200000F1FF3502D2A64500F2B6802846A4EB85
:104230000E0440EA03409EE7C1F120078B4022FABA
:1042400007FC4CEA030C25FA07FA4FEA1C49BAFBB3
:10425000F9F820FA07F309FB18AA8D401FFA8CFE23
:104260001D4300FA01F308FB0EF02C0C44EA0A444B
:10427000A04202FA01F20BD91CEB040408F1FF3A48
:1042800080F08880A04240F28580A8F10208644452
:10429000241AB4FBF9F009FB104400FB0EFEADB28A
:1042A00045EA0444A64508D91CEB040400F1FF3597
:1042B0006CD2A6456AD90238644440EA0840A0FBA3
:1042C0000295A4EB0E04AC42C846AE4656D353D07A
:1042D000002E69D0B3EB080264EB0E0422FA01F35E
:1042E00004FA07F71F43CC40C6E90074002147E7F2
:1042F0000CFA02FCC2F1200125FA01F34FEA1C4737
:1043000020FA01F195400D43B3FBF7F107FB1133A0
:104310001FFA8CFE280C40EA034001FB0EF3834297
:1043200004FA02F408D91CEB000001F1FF382FD287
:1043300083422DD902396044C01AB0FBF7F307FB62
:104340001300ADB245EA004503FB0EF0A84208D9C0
:104350001CEB050503F1FF3816D2A84214D9023B25
:104360006544281A43EA014138E73146304607E7F9
:104370002F46E4E61846F9E64B45A9D2B9EB020808
:1043800065EB0C0E0138A3E74346EAE7284694E7BD
:104390004146D1E7D0467BE76444023847E7023B19
:1043A00065442FE7084606E73146E9E6704700BF57
:1043B000032A10B516D940EA010C1CF0030F04467D
:1043C0000B4622D119462046D1F800E0D0F800C0B3
:1043D0000433F44504F1040417D1043A032A2046B7
:1043E0001946EFD8541EA2B100F1FF3C013901E09B
:1043F000C3180CD01CF801EF11F8012FA4EB0C032B
:104400009645F5D0AEEB020010BD541EECE7184601
:1044100010BD104610BD00BF844641EA000313F0F2
:10442000030349D1403A23D30B6803604B684360D0
:104430008B688360CB68C3600B6903614B69436120
:104440008B698361CB69C3610B6A03624B6A436208
:104450008B6A8362CB6AC3620B6B03634B6B4363F0
:104460008B6B8363CB6BC36340304031403ADBD20C
:1044700030320BD30B6803604B6843608B688360FA
:10448000CB68C36010301031103AF3D20C3205D330
:1044900051F8043B40F8043B043AF9D2043208D006
:1044A000D2071CBF11F8013B00F8013B01D30B8878
:1044B00003806046704700BF082A13D38B07B1D032
:1044C00010F00303AED0C3F10403D21ADB071CBF04
:1044D00011F8013B00F8013BA4D331F8023B20F86E
:1044E000023B9FE7043AD9D3013A11F8013B00F8A7
:1044F000013BF9D20B7803704B7843708B78837053
:1045000060467047830730B548D0541E002A3FD01C
:104510000346CAB201E0013C3AD303F8012B9D07E0
:10452000F9D1032C2DD9CDB245EA05250F2C45EA4A
:10453000054536D9A4F1100222F00F0C03F1200E2C
:10454000E6444FEA121C03F1100242E9045542E925
:10455000025510327245F8D10CF1010214F00C0F23
:1045600003EB021204F00F0C13D0ACF1040323F0A0
:1045700003030433134442F8045B9342FBD10CF071
:1045800003042CB1CAB21C4403F8012B9C42FBD19A
:1045900030BD64461346002CF4D1F9E703461446B7
:1045A000BFE71A46A446E0E7FEE708B5FBF76EFE54
:1045B000F7B500240646254627463046FBF7C0FFE0
:1045C0000197019BAB4215DB3046FBF7C1FFC5F5F8
:1045D000C8750197019B9D4211DC0134B4F5487FF9
:1045E00001D103B0F0BDB4F5C87FD4BF2546C4F5F2
:1045F0004875E2E700BF019B01330193E1E700BF8B
:10460000019B01330193E5E7704710B54FF0E024BB
:10461000236923F001032361FCF7B6F8236943F013
:104620000103236110BD70470020FCF7A5B90120EC
:10463000FCF7A2B90020FCF765BB0120FCF762BBC8
:104640000220FCF75FBB0320FCF75CBB10B50C46F7
:10465000FCF7A8FC2046BDE81040FCF75FBF10B592
:104660000446C1B20020FCF79FFA204610BD70B589
:104670000E460025441E631C02D014F8010F08B931
:10468000284670BDB542FBD0FFF7E9FF0135F2E7E0
:1046900038B505460024285D20B90A20FFF7DFFF62
:1046A000204638BDFFF7DBFF0134F4E700207047F8
:1046B0000120704710B50446302200210E20FCF77F
:1046C0008FFB6CB1012C0CD142F210730011A0F2DF
:1046D0008E5058432A2390FBF3F000F5C340283056
:1046E00010BD4FF00040FBE70020704701207047ED
:1046F00010B50446302200210F20FCF771FB5CB19D
:10470000012C03BF40F6F253584347F6F0734FF0C5
:10471000004008BF90FBF3F010BD084608B51146F5
:104720000AB1FFF7A4FF002008BD10B5041F54F81C
:10473000040F00B910BD0021FEF76CF9F7E710B5C2
:10474000044600F01BF82046BDE81040FEF718B8FC
:1047500010B5044600F019F82046BDE81040FEF7F9
:104760000FB8C068B0FA80F040097047837BDB0760
:1047700001D5FEF747B87047FFF755BF10B5416048
:104780000446FCF74DF8206010BDD0E90032134418
:104790000360704710B50446FCF742F82368C3F184
:1047A00001030344606898422CBF0020012010BD23
:1047B00000230360704700687047006820B103461B
:1047C00000680028FBD118467047036810B53BB15C
:1047D000002499421A6806D11CB9026000221A60AE
:1047E00010BD2260FAE71C46002AF9D01346F0E714
:1047F00038B5FFF7EAFF00230B600546FFF7DDFF42
:1048000008B9296038BD0160FCE738B5FFF7DDFF66
:1048100003680B60016038BD0368002003B970476E
:104820001B680130FAE700B10068704710B5044614
:10483000428800214068FFF765FE23886288A068EF
:104840000021BDE810405A43FFF75CBE002310B5BD
:104850004188994201DC002009E04268D418D25C0A
:1048600032B9012222700288806803FB020010BD69
:104870000133EEE7002330B5826844889C4201DCB6
:10488000FF2008E08A4207D14168CA5C0AB1013AB8
:10489000CA544268D05C30BD058801332A44EDE734
:1048A00083688B4208D84288008800FB023081422E
:1048B0002CBF002001207047002070470023013AE0
:1048C0000160027143718371704710B54279837939
:1048D0000479D31A34EA030308D00368995443795E
:1048E0000279013313404371012010BD0020FCE721
:1048F000837942790179D21A0A421FBF0268D25CD9
:1049000001330B401ABF837110464FF0FF307047E0
:10491000FEF764BB03691B6803B11847704703695E
:104920005B6803B1184770477047F8B50E46FEF74D
:10493000FFFB07880446FEF7C5FBBB00023383423A
:1049400003D800250234AF4200DCF8BD54F8041B44
:1049500030460A0C89B2FEF707FA0135F3E74369DE
:104960005B6803B11847704713B504461A20FEF779
:10497000B3FC014601A800F086F963691B6813B116
:10498000204601A9984702B010BD831C002013F8EF
:10499000022C023302B9704713F8032C1044F6E7D7
:1049A000072B2DE9F84306460F4615461C4607DC43
:1049B0001A4629463846FEF78BFA3070BDE8F88370
:1049C0004FEAE3087AB97B5D735501354545FADB5B
:1049D00014F00702F2D0002107EB0800FEF778FA86
:1049E00006F80800EAE74FF0000907EB0900082283
:1049F0002946FEF76DFA06F8090009F10109C145DB
:104A0000F3DB14F00702D9D02946E5E72DE9F74397
:104A1000FEF78EFB04460220FEF736FB20B9002588
:104A2000284603B0BDE8F0836378207800EB0320CC
:104A300080B2FEF78FFA05460028F0D0FEF778FB2B
:104A40000746287B10F0070318BF012303EBD000B3
:104A5000FEF71AFB0028E2D00026B146AC6802340B
:104A600014F8023C002BDBD0192B14F8018C07EB57
:104A7000E60106F007020BD901A84346FFF790FFB5
:104A800014F8020C01A9FEF71BFC46440234E7E7C8
:104A900001A84346ADF80490FFF782FFBDF804106B
:104AA00014F8020CFEF7FEFBEFE7072B2DE9F041AF
:104AB0000FDC1478C1F11001CB1A04FA03F301786A
:104AC000C3F307220A43417802700B434370BDE8E9
:104AD000F081DC10C9B9555C45540131A142FADBC3
:104AE00013F00703F3D0125DC3F108052A41C3F1A7
:104AF0001003055D02FA03F3C3F307222A430119E9
:104B000002554A7813434B70E1E705460026C1F190
:104B1000080E975D95F800C007FA0EF7C7F307284F
:104B20004CEA080C05F801CB95F800C001364CEAB8
:104B30000707A6422F70ECDB13F00703C7D0125D06
:104B4000C3F1080631440A41D2B2C3F11003015D3A
:104B500002FA03F3C3F307220A43051902556A78E0
:104B600013436B70B3E72DE9F743057B044615F05B
:104B7000070218BF012202EBD505A81CFEF70AFBAD
:104B8000A8B1FEF79BFAA3880370A3881B0A4370A1
:104B9000FEF794FA2A460025861C00213046FFF7CE
:104BA000B1FCA468023414F8020C18B9012003B057
:104BB000BDE8F083192814F8017C06EBE50805F040
:104BC00007090AD9FEF788FB3B460246494640469C
:104BD000FFF76BFF3D440234E5E7FEF76BFB8DF812
:104BE0000400000A3B468DF8050001AAEEE7FEF737
:104BF000A3B938B50D46FEF7ADF9044620B185607E
:104C00002846FEF793F9207338BD10B5FEF774FB04
:104C1000FEF7FAFAFEF796F8FFF7E9FFBDE8104055
:104C20004FF4E1234FF4F0524FF400710220FEF7ED
:104C300017B983695B6803B11847704710B504461C
:104C40001B20FEF73DFB2046BDE81040FEF732B9C1
:104C50000EF00F000D2808BF00F00EB800982DE9E7
:104C6000F04F00F1240181F3098890E8F08F0EF0F5
:104C70000F000D2818BF7047EFF3098020E9F04FAF
:104C80000990BDE8F08F0B8803807047022208B5B9
:104C9000FFF78EFBB0FA80F0400908BD006800F114
:104CA000B6018230FEF7D6BA036803EB4103B3F8CE
:104CB0008200704730B530B3037A022B2CD1C5790E
:104CC0000479437A2DB9002B4AD1012C48D12046D2
:104CD00015E054EA03001DD0032D2FD1032B2FD153
:104CE000B4FA84F04009002309E0181E18BF01201F
:104CF000002CF8D1023B012B8CBF0023012301B112
:104D00000B6002B1106030BD023B012B8CBF002351
:104D10000123DCE701201BE00378022B22D003797A
:104D200053B9437A13F0030318BF0123C07910F07D
:104D3000030018BF0120E2E70023F7E7022DD4D0DB
:104D4000A3F1020CDCF1000040EB0C00002CCAD1F6
:104D5000022DCFD0032DC6D19C1E63426341CEE706
:104D6000002CD1D000200346C9E7002337B50B60E3
:104D70008B80437D0D46D9075CBF01232B70037EDA
:104D80000446012B0BD8C37D9A072CD0437E9B078A
:104D900029D0C28B838B9A4225D101232375694682
:104DA00001AA04F11000FFF785FF009B0BB102235D
:104DB000EB70019B0BB102236B70E37D03F00303E7
:104DC000022B03D0032B14BF00230823AB70637E98
:104DD00003F00303022B03D0032B14BF002308238B
:104DE0002B7103B030BD0023D8E702280CBF02238B
:104DF00008230B448B4201D10120704713F8012D89
:104E0000FF2AF7D00020704707B56946FFF7ADFFCE
:104E10009DF800309DF80100023303449DF8020024
:104E200003449DF8030003449DF8040003449DF8E7
:104E30000500184403B05DF804FB43788278DB007A
:104E4000120102F0100203F008031343027802F08B
:104E500007021343C278520102F020021343027981
:104E6000920102F0400213430B704379427A03F03F
:104E7000010343EA82138279520002F002021343D3
:104E8000C279920002F00C021343027A120102F07E
:104E9000300213434B70704737B504460D466946E0
:104EA000FFF763FF294604F11000FFF7C6FF9DF8E6
:104EB00000309DF80120012B09BFA37E0223AB70B7
:104EC0000323022A08D1A18B5A1CE954A18BD2B228
:104ED0000233090ADBB2A9549DF802201344DBB265
:104EE000991AC9B2B2B99DF80320022A08D1E18B00
:104EF0005A1CE954E18BD2B20233090ADBB2A9543D
:104F00009DF8042008341344D8B2831ADBB22AB9BE
:104F100003B030BD013AA05C6854E1E7013AA15CFE
:104F2000E954F2E70278437802F007000870C2F310
:104F3000C0004870C2F300108870C2F34010C2F382
:104F400080120A7103F001024A71C3F340028A71B0
:104F5000C3F38102CA71C3F301129B09C8700A72BC
:104F60004B72704730B591B0FEF7E2F80446FEF799
:104F7000A9F86A4601462046FEF7DEFB044620B942
:104F80004FF0FF34204611B030BDFEF77DF8002809
:104F9000F6D014209DF81010FEF784F99DF8173014
:104FA000ABB1BDF81C50FEF7C1FB854205D04FF6F2
:104FB000FF73BDF81C209A42E2D169469DF81700A4
:104FC000FFF713FF18B969461B20FEF779F902A90C
:104FD0001A20FEF775F913209DF81210FEF762F9FA
:104FE0009DF8153053B99DF81A100A20FEF75AF9AA
:104FF0009DF81A100E20FEF755F9C3E74FF6FF7122
:10500000F3E70020FEF72EBC0120FEF72BBC10B406
:105010000446084611461A4614B1234610BC1847E8
:1050200010BC704700207047FEF712BD70B50446F3
:105030000D4602B970BDD2E90060FEF7A3F929461A
:105040002046FEF70BFD0028F4D03246F1E7FEF7CC
:1050500005BD7047A152200061052000BD0520005C
:10506000000000000100000001000000010000003D
:1050700000C0004000410D40000000001100000091
:105080001700000000000001FFFFFFFF0500000007
:1050900002000000020000000200000000D00040FA
:1050A00008410D4002000000110000001700000040
:1050B00002010200FFFFFFFF060000003C5320003A
:1050C000405320004F532000535320003D17200031
:1050D000A50F20001D1520004D46200009112000BD
:1050E000E9142000350F20004D0F20005D0F200037
:1050F000051220009D132000B5122000211620006B
:10510000D910200007000000FF000000050000008B
:10511000ED00000003000000D500000001000000C9
:10512000C500000000000000B6000000FFFFFFFF08
:10513000B0000000FDFFFFFFA1000000FBFFFFFF2C
:1051400091000000F9FFFFFF88000000F7FFFFFF5C
:1051500072000000F5FFFFFF62000000F3FFFFFF99
:1051600058000000F1FFFFFF42000000E8FFFFFFD2
:10517000000000007A532000B5462000AD46200014
:10518000B14620008E532000F1462000E946200061
:10519000ED4620002B4920002949200069492000C4
:1051A0005F4920000D4A2000674B20008B492000FA
:1051B000285420000B4C2000A92F20000130200093
:1051C000334C20003354200081352000353420003A
:1051D000B5332000C1332000CD332000D933200067
:1051E0000350200009502000654F20003854200053
:1051F000295020004F5020002D502000893B2000D6
:10520000513A2000713B200025502000DD3B20005A
:10521000253C2000ED3B200040542000535020004E
:105220009D3C2000913C2000E40000200000000094
:105230000000436F6E74696B692D332E782D333304
:1052400034352D67333262356231376636005A6F36
:105250006C65727469612046697265666C7920704C
:105260006C6174666F726D0052696D6520636F6E5C
:105270006669677572656420776974682061646423
:10528000726573732000253032783A00204E6574C1
:105290003A2000204D41433A2000205244433A2016
:1052A00000427574746F6E004343323533383A20D0
:1052B00049443A2030782530346C782C2072657659
:1052C0002E3A20504725642E25642C20466C6173AD
:1052D000683A20256C75204B69422C205352414D71
:1052E0003A20256C75204B69422C204145532F53A1
:1052F00048413A2025752C204543432F5253413ACB
:105300002025750A53797374656D20636C6F636B28
:105310003A20256C7520487A0A492F4F20636C6F1C
:10532000636B3A20256C7520487A0A526573657460
:105330002063617573653A2025730A00504F52004F
:1053400045787465726E616C207265736574005780
:10535000445400434C44206F7220736F667477612D
:10536000726520726573657400636332353338206B
:10537000524620647269766572004F6E2D436869EB
:10538000702054656D706572617475726500564465
:1053900044330030313233343536373839414243C3
:1053A000444546003031323334353637383961625E
:1053B00063646566003058003078002D002B0028AB
:1053C0006E756C6C290025002020202020202020D4
:1053D000202020202020202030303030303030304D
:1053E00030303030303030304374696D6572207049
:1053F000726F63657373004576656E742074696DB2
:1054000065720053657269616C20647269766572B9
:105410000053656E736F72730000001A1000000075
:1054200080C0E0F0F8FCFEFF52696D65001B101AA9
:1054300010000043534D41006E756C6C7264630044
:105440006E756C6C736563004170703A2049206121
:105450006D207468652073696E6B20253032783A50
:10546000253032780A004170703A204920616D2061
:1054700061206E6F726D616C206E6F6465202530E7
:1054800032783A253032780A004170703A205365FC
:105490006E64207365716E2025640A004170703A55
:1054A000204552524F522C20756E696361737420EF
:1054B00073656E64206F7574636F6D65203D203079
:1054C00021004170703A204552524F522C206E6F8D
:1054D000646520253032783A25303278206973208F
:1054E00063757272656E746C7920646973636F6E34
:1054F0006E6563746564210A004170703A204552FC
:10550000524F522C207061636B65746275665F68E0
:105510006472616C6C6F6328292077617320756EEB
:1055200061626C6520746F20616C6C6F636174657F
:105530002073756666696369656E74206865616469
:10554000657220737061636521004170703A204D6F
:10555000657373616765207365716E2025642073C0
:10556000656E7420636F72726563746C79210A00D2
:105570004170703A2077726F6E67206C656E677449
:10558000683A2025640A004170703A2052656376BB
:105590002066726F6D20253032783A2530327820BF
:1055A0007365716E20256420686F70732025640A0E
:1055B000004170702070726F63657373006D795F66
:1055C000636F6C6C6563743A2062726F61646361CF
:1055D0007374206F662077726F6E672073697A65C7
:1055E000006D795F636F6C6C6563743A20726563FC
:1055F0007620626561636F6E2066726F6D20253064
:1056000032783A25303278207365716E2025752006
:105610006D65747269632025752072737369202526
:10562000640A006D795F636F6C6C6563743A206E19
:10563000657720706172656E7420253032783A2566
:105640003032782C206D79206D6574726963202565
:10565000640A006D795F636F6C6C6563743A2074E3
:105660006F6F2073686F727420756E6963617374F5
:10567000207061636B65742025640A004E6F206E94
:105680006F646520706172656E7420746F20666F40
:1056900077617264004E6F20737061636520666F7E
:1056A00072207468652068656164657220696E2087
:1056B0007061636B6574627566006D795F636F6CB2
:1056C0006C6563743A2073656E64696E6720626509
:1056D00061636F6E3A207365716E202564206D657D
:0956E000747269632025640A005C
:1056EC008451200054502000745120000000000010
:1056FC000000000069532000211820000000000069
:10570C001B4720000000000000000000E8532000B0
:10571C00F12420000000000000000000F7532000DE
:10572C00D9262000000000000000000003542000D7
:10573C00852A200000000000000000001154200009
:10574C00152C20000000000004000800EE0E0020C4
:10575C0008050020BE000800F60E0020DA07002025
:10576C000C000800FF0E0020280500203400020069
:10577C00070F00208C0500200C000800090F0020EA
:10578C00F405002000000000B1552000BD3C2000B5
:10579C0000000000E13D2000213E20000000000040
:0E57AC00D93E200000000000CDABF79C1A0192
:0857BC001CE9FF7F0100000061
:020000040027D3
:10FFD400FFFFFFF30000000000002000FFFFFFFF11
:10FFE400FFFFFFFFFFFFFFFFFFFFFFFFFFFFFFFF1D
:0CFFF400FFFFFFFFFFFFFFFFFFFFFFFF0D
:040000050027FFD4FD
:00000001FF
